:020000040800F2
:1000000000000220D1170008FD020008FF020008CE
:1000100001030008030300080503000800000000B6
:1000200000000000000000000000000007030008BE
:1000300009030008000000000B0300080D0300087E
:10004000251800082518000825180008251800089C
:10005000251800082518000825180008251800088C
:10006000251800082518000825180008251800087C
:10007000251800082518000825180008251800086C
:10008000251800082518000825180008251800085C
:10009000251800082518000825180008251800084C
:1000A000251800082518000825180008251800083C
:1000B000251800082518000825180008251800082C
:1000C000251800082518000825180008251800081C
:1000D000251800082518000825180008251800080C
:1000E0002518000825180008000000002518000841
:1000F00025180008251800082518000825180008EC
:1001000025180008251800082518000825180008DB
:1001100025180008251800082518000825180008CB
:1001200025180008251800082518000825180008BB
:1001300025180008251800082518000825180008AB
:100140002518000825180008000000000000000025
:10015000251800082518000825180008251800088B
:10016000251800082518000825180008251800087B
:1001700025180008251800082518000800000000B0
:10018000251800082518000825180008251800085B
:10019000251800082518000825180008251800084B
:1001A000251800082518000825180008251800083B
:1001B000251800082518000825180008251800082B
:1001C000251800082518000825180008251800081B
:1001D000251800082518000825180008251800080B
:1001E00025180008251800082518000825180008FB
:1001F00025180008251800082518000825180008EB
:1002000025180008251800082518000825180008DA
:1002100025180008251800082518000825180008CA
:1002200025180008251800082518000800000000FF
:1002300025180008251800082518000825180008AA
:10024000251800082518000825180008251800089A
:10025000251800082518000825180008251800088A
:10026000251800082518000825180008251800087A
:10027000251800082518000825180008251800086A
:10028000251800082518000825180008000000009F
:080290002518000825180008DC
:1002980010B5054C237833B9044B13B10448AFF3B8
:1002A80000800123237010BD100000200000000012
:1002B8008018000808B5034B1BB103490348AFF386
:1002C800008008BD0000000014000020801800080D
:1002D80082B0074BD3F8F42042F00202C3F8F420AE
:1002E800D3F8F43003F002030193019B02B0704786
:1002F80000440258FEE7FEE7FEE7FEE7FEE7704728
:100308007047704708B500F057F808BD104B1B78C8
:100318000BB90120704710B504464FF47A70B0FB52
:10032800F3F30C4A1068B0FBF3F000F0A5F868B9D5
:100338000F2C01D901200AE0002221464FF0FF309E
:1003480000F064F8044B1C60002000E0012010BDA0
:1003580000000020080000200400002010B5032041
:1003680000F042F800F0B2FD0F498B69C3F3032394
:100378000E4AD35C03F01F03D8408B6903F00F03C8
:10038800D35C03F01F0320FA03F3094A1360094BF7
:1003980018600F20FFF7BAFF10B10124204610BDE6
:1003A8000446FFF795FFF9E700440258981800083B
:1003B8000C00002008000020034B1B78034A11683A
:1003C8000B441360704700BF000000202C00002081
:1003D800014B1868704700BF2C000020014B1868BB
:1003E800000C70470010005C0649CB6823F4E063FA
:1003F8001B041B0C000200F4E0600343024A1A438A
:10040800CA60704700ED00E00000FA0500B5174B20
:10041800DB68C3F30223C3F1070CBCF1040F28BF48
:100428004FF0040C03F1040EBEF1060F14D9033B80
:100438004FF0FF3E0EFA0CFC21EA0C0199400EFA2F
:1004480003FE22EA0E020A43002807DB1201D2B299
:10045800074B1A545DF804FB0023E9E700F00F008E
:100468001201D2B2034B1A54F4E700BF00ED00E0CA
:1004780000E400E014ED00E00138B0F1807F0BD219
:100488004FF0E0235861054AF02182F8231000203C
:10049800986107221A6170470120704700ED00E05B
:1004A800BFF35F8F044B5A6A22F480325A620022EB
:1004B800C3F89420704700BF00ED00E040F0010051
:1004C800054BC3F894005A6A42F480325A62BFF36B
:1004D8004F8FBFF36F8F704700ED00E04378144AE9
:1004E800C2F89830D2F8A03023F00103C2F8A03047
:1004F8004368C2F89C30017BC37A1B0643EA017348
:10050800817A43EAC143417B43EA8143817B43EAE1
:100518004143C17B43EA0143417A43EA0123017A1B
:1005280043EA410301780B43C2F8A030704700BF8B
:1005380000ED00E0F0B583B000236BE085685E0055
:100548000324B44025EA0405CC68B4402C438460F5
:10055800456825EA0C054C68C4F300149C402C43FC
:10056800446069E0DD08083550F8254003F0070CC1
:100578004FEA8C0C4FF00F0E0EFA0CFE24EA0E0E0A
:100588000C6904FA0CF444EA0E0440F825406BE0C8
:10059800092400E0002404FA0EF42C430CF1020CA8
:1005A800694D45F82C404FF0B0442568D44325EAFE
:1005B80002064F6817F4801F01D042EA05064FF083
:1005C800B0452E606D6804EA05064F6817F4001FF1
:1005D80001D042EA05064FF0B0456E60D5F8845068
:1005E80004EA05064F6817F4003F01D042EA050601
:1005F8004FF0B045C5F88460D5F880502C404E685F
:1006080016F4803F01D042EA05044FF0B042C2F828
:10061800804001330A6832FA03F400F092804FF008
:10062800010C0CFA03FC1CEA0202F2D04C6804F03C
:100638000304013C012C81D94C6804F00304032C09
:100648000CD0C4685D004FF0030C0CFA05FC24EADA
:100658000C0C8C68AC4044EA0C04C4604C6804F090
:100668000304022C3FF47EAF04684FEA430E4FF0B8
:10067800030C0CFA0EFC24EA0C0C4C6804F003047E
:1006880004FA0EF444EA0C0404604C6814F4403F85
:10069800BFD02E4CD4F8F45045F00205C4F8F450FD
:1006A800D4F8F44004F002040194019C4FEA930C3E
:1006B8000CF10205244C54F8255003F0030E4FEAC0
:1006C8008E0E0F2404FA0EF425EA0405204CA042ED
:1006D8003FF460AF04F58064A04222D004F5806442
:1006E800A04220D004F58064A0421ED004F58064A6
:1006F800A0421CD004F58064A0421AD004F580649E
:10070800A04218D004F58064A04216D004F5806495
:10071800A04214D004F58064A0423FF439AF0A2403
:1007280039E7012437E7022435E7032433E70424B3
:1007380031E705242FE706242DE707242BE70824B3
:1007480029E703B0F0BD00BF000400580044025878
:10075800000002582030054B53F82020044B9A42E1
:1007680001D0012070470020704700BF0064025884
:100778000003008041F44071014B43F8201070479A
:100788000064025838B50446224BDB6803F00703BF
:10079800062B07D01F4BDB6803F03F03834236D09C
:1007A800012038BD1B4AD36823F03F030343D360BD
:1007B800FFF70EFE0546174B5B6813F4005F07D181
:1007C800FFF706FE431BB3F57A7FF4D90120E8E76B
:1007D8002E2C18BF1E2C08D02D2C14BF002301234B
:1007E8001D2C02D00BB90020DBE7FFF7F1FD044612
:1007F800084BDB6813F4803F07D1FFF7E9FD001BC6
:10080800B0F57A7FF4D90120CBE70020C9E70020B2
:10081800C7E700BF00480258002800F0398338B500
:100828000446036813F0010F25D0944A136903F0B6
:100838003803926A102B15D0182B0FD06368B3F5C4
:10084800803F3FD0002B53D18C4B1A6822F4803262
:100858001A601A6822F480221A6038E002F0030253
:10086800022AEBD1854B1B6813F4003F03D0636861
:10087800002B00F00F83236813F0020F00F0A18013
:100888007E4A1369926A13F038035AD0182B55D050
:10089800E368002B00F0DE8078490A6822F019022C
:1008A80013430B60FFF794FD0546744B1B6813F068
:1008B800040F40F0AD80FFF78BFD401B0228F4D9F0
:1008C8000320EEE26D4A136843F4803313606368D3
:1008D8002BB3FFF77DFD0546684B1B6813F4003FFB
:1008E800C9D1FFF775FD401B6428F5D90320D8E26C
:1008F800B3F5A02F09D0614B1A6822F480321A6030
:100908001A6822F480221A60E1E75C4B1A6842F404
:1009180080221A601A6842F480321A60D7E7FFF71B
:1009280057FD0546554B1B6813F4003FA3D0FFF74E
:100938004FFD401B6428F5D90320B2E212F0030FE3
:10094800A6D14E4B1B6813F0040F03D0E368002BAD
:1009580000F0A282494A136823F01903E1680B43A7
:100968001360FFF735FD0546444B1B6813F0040F71
:1009780006D1FFF72DFD401B0228F5D9032090E290
:10098800FFF72CFD41F20303984212D82269402A4E
:1009980007D03A494B6823F47C3343EA02334B606F
:1009A8000FE0364A536823F47C3343F40033536032
:1009B80007E0324A536823F0FE43216943EA0163A2
:1009C8005360236813F0100F00F088802B4A1369D6
:1009D80003F03803926A082B56D0182B50D0E369DD
:1009E800002B00F0B880254A136843F08003136099
:1009F800FFF7EEFC0546214B1B6813F4807F40F09F
:100A08008880FFF7E5FC401B0228F4D9032048E260
:100A1800FFF7E4FC41F20303984212D82269402A06
:100A280007D016494B6823F47C3343EA02334B6002
:100A3800C7E7124A536823F47C3343F40033536006
:100A4800BFE70E4A536823F0FE43216943EA016376
:100A58005360B6E7094A136823F001031360FFF7F0
:100A6800B7FC0546054B1B6813F0040FA9D0FFF728
:100A7800AFFC401B0228F5D9032012E200440258BB
:100A880002F00302012AAAD1A14B1B6813F4807F4C
:100A980003D0E369802B40F00182FFF79FFC41F20D
:100AA8000303984212D8226A202A07D098494B6833
:100AB80023F0F84343EA82634B600FE0944A53689B
:100AC80023F0F84343F08043536007E0904AD3682B
:100AD80023F07C53216A43EA0163D360236813F04F
:100AE800080F60D06369002B49D0894A536F43F0DF
:100AF80001035367FFF76CFC0546854B5B6F13F0EA
:100B0800020F50D1FFF764FC401B0228F5D90320DF
:100B1800C7E1FFF763FC41F20303984212D8226A47
:100B2800202A07D07A494B6823F0F84343EA8263C6
:100B38004B60D3E7764A536823F0F84343F0804389
:100B48005360CBE7724AD36823F07C53216A43EAA7
:100B58000163D360C2E76E4A136823F08003136011
:100B6800FFF736FC05466A4B1B6813F4807FB5D047
:100B7800FFF72EFC401B0228F5D9032091E1644AB7
:100B8800536F23F001035367FFF722FC0546604BC0
:100B98005B6F13F0020F06D0FFF71AFC401B022808
:100BA800F5D903207DE1236813F0200F29D0A3692C
:100BB8009BB1574A136843F480531360FFF708FC4E
:100BC8000546534B1B6813F4005F1AD1FFF700FC6E
:100BD800401B0228F5D9032063E14D4A136823F42A
:100BE80080531360FFF7F4FB0546494B1B6813F469
:100BF800005F06D0FFF7ECFB401B0228F5D9032065
:100C08004FE1236813F0040F21D1636A002B00F031
:100C180047813F4A126902F03802182A00F0EE8034
:100C2800022B79D03A4A136823F080731360FFF7D8
:100C3800CFFB0446364B1B6813F0007F00F0DC80C6
:100C4800FFF7C6FB001B0228F4D9032029E1314A2B
:100C5800136843F480731360FFF7BAFB05462D4B06
:100C68001B6813F4807F06D1FFF7B2FB401B642892
:100C7800F5D9032015E1A368012B0AD00BBB244B3F
:100C88001A6F22F001021A671A6F22F004021A671B
:100C980004E01F4A136F43F001031367A36833B3DB
:100CA800FFF796FB05461A4B1B6F13F0020FACD1EA
:100CB800FFF78EFB401B41F288339842F3D903209B
:100CC800EFE0052B09D0124B1A6F22F001021A67C8
:100CD8001A6F22F004021A67E0E70D4B1A6F42F010
:100CE80004021A671A6F42F001021A67D6E7FFF783
:100CF8006FFB0546064B1B6F13F0020F85D0FFF7FD
:100D080067FB401B41F288339842F3D90320C8E0BF
:100D18000044025800480258694A136823F0807357
:100D28001360FFF755FB0546654B1B6813F0007F02
:100D380006D0FFF74DFB401B0228F5D90320B0E091
:100D48005F4B996A5F4A0A40A16AE06A41EA00116A
:100D58000A439A62226B013AC2F30802616B0139B5
:100D6800490289B20A43A16B0139090401F4FE0161
:100D78000A43E16B0139090601F0FE410A431A638F
:100D8800DA6A22F00102DA62596B4F4A0A40A16C12
:100D980042EAC1025A63DA6A22F00C02216C0A4361
:100DA800DA62DA6A22F00202616C0A43DA62DA6A0B
:100DB80042F48032DA62DA6A42F40032DA62DA6ADB
:100DC80042F48022DA62DA6A42F00102DA621A68D0
:100DD80042F080721A60FFF7FBFA0446384B1B6832
:100DE80013F0007F06D1FFF7F3FA001B0228F5D9AC
:100DF800032056E0002054E0002052E0304A916A77
:100E0800106B012B4ED001F00303A26A93424BD121
:100E1800C1F30511E36A994248D1C0F30802236B74
:100E2800013B9A4244D1C0F34622636B013B9A428C
:100E380040D1C0F30642A36B013B9A423CD1C0F3B8
:100E48000660E36B013B984238D11D4B5B6BC3F3E3
:100E5800CC03A26C9A4201D1002022E0184AD36A3E
:100E680023F00103D362FFF7B3FA0546FFF7B0FAA0
:100E7800A842FBD0124A516B134B0B40A16C43EABA
:100E8800C1035363D36A43F00103D362002008E02F
:100E980001207047012004E0012002E0012000E069
:100EA800002038BD0120FCE70120FAE70120F8E71F
:100EB8000120F6E70120F4E70120F2E70120F0E73E
:100EC800004402580CFCFFFF0700FFFF744B1B692E
:100ED80003F03803102B00F0DE80182B0FD00BB175
:100EE800704870476E4B1B6813F0200F00F0D580D8
:100EF8006B4B1B68C3F3C1036B48D840704710B4F1
:100F0800674B9A6A02F003029C6AC4F30510D96A17
:100F180001F001015B6BC3F3CC0301FB03F307EEA4
:100F2800903AF8EE677A14F47C7F00F09480012AF6
:100F380066D0022A00F09280E2B107EE100AF8EEBD
:100F4800476A9FED5A6A86EE267A554B1B6BC3F3A8
:100F5800080306EE903AF8EE666A9FED556A67EE6A
:100F6800867A76EEA77AF7EE006A77EEA67A27EE0B
:100F7800277A61E04A4B1B6813F0200F23D04849B9
:100F88000A68C2F3C102484BD34007EE103AF8EEA4
:100F9800476A07EE100AB8EE476A86EE867A0B6B48
:100FA800C3F3080306EE903AF8EE666A9FED406ACE
:100FB80067EE867A76EEA77AF7EE006A77EEA67A7B
:100FC80027EE277A38E007EE100AF8EE476A9FED19
:100FD800396A86EE267A324B1B6BC3F3080306EE9A
:100FE800903AF8EE666A9FED326A67EE867A76EE98
:100FF800A77AF7EE006A77EEA67A27EE277A1BE043
:1010080007EE100AF8EE476A9FED286A86EE267A00
:10101800234B1B6BC3F3080306EE903AF8EE666A9F
:101028009FED236A67EE867A76EEA77AF7EE006A76
:1010380077EEA67A27EE277A194B1B6BC3F3462364
:10104800013307EE903AF8EE677AC7EE276AFCEEAE
:10105800E67A17EE900A5DF8044B704707EE100A1F
:10106800F8EE476A9FED146A86EE267A0C4B1B6BE6
:10107800C3F3080306EE903AF8EE666A9FED0C6A31
:1010880067EE867A76EEA77AF7EE006A77EEA67AAA
:1010980027EE277AD0E7094870470348704700BF12
:1010A8000044025800093D000090D0030024744A0F
:1010B800000000390024744C20BCBE4B40787D01F0
:1010C800002800F0328170B50D4604469B4B1B6822
:1010D80003F00F038B420BD2984A136823F00F03D7
:1010E8000B431360136803F00F038B4240F01F811A
:1010F800236813F0040F0CD02269914B9B6903F00D
:1011080070039A4205D98E498B6923F070031A43FC
:101118008A61236813F0080F0CD06269884BDB6979
:1011280003F070039A4205D98549CB6923F070030F
:101138001A43CA61236813F0100F0CD0A269804BC0
:10114800DB6903F4E0639A4205D97D49CB6923F44E
:10115800E0631A43CA61236813F0200F0CD0E269D8
:10116800774B1B6A03F070039A4205D974490B6ADE
:1011780023F070031A430A62236813F0020F0CD09D
:10118800E2686F4B9B6903F00F039A4205D96C49DB
:101198008B6923F00F031A438A61236813F0010F48
:1011A80041D0674A936923F47063A1680B43936144
:1011B8006368022B0AD0032B27D0012B2CD0604A5E
:1011C800126812F0040F06D10120ADE0126812F483
:1011D800003F00F0AE805A490A6922F00702134323
:1011E8000B61FFF7F5F80646554B1B6903F038030A
:1011F8006268B3EBC20F16D0FFF7EAF8801B41F222
:1012080088339842F0D903208EE04D4A126812F0D4
:10121800007FE0D1012087E0494A126812F4807FFC
:10122800D9D1012080E0236813F0020F0CD0E268C6
:10123800434B9B6903F00F039A4205D240498B69DF
:1012480023F00F031A438A613C4B1B6803F00F031A
:10125800AB420AD9394A136823F00F032B431360B2
:10126800136803F00F03AB4265D1236813F0040F32
:101278000CD02269324B9B6903F070039A4205D265
:101288002F498B6923F070031A438A61236813F08E
:10129800080F0CD062692A4BDB6903F070039A428D
:1012A80005D22749CB6923F070031A43CA61236822
:1012B80013F0100F0CD0A269214BDB6903F4E06333
:1012C8009A4205D21E49CB6923F4E0631A43CA61E6
:1012D800236813F0200F0CD0E269194B1B6A03F046
:1012E80070039A4205D216490B6A23F070031A4319
:1012F8000A62FFF7EBFD12498B69C3F30323114A16
:10130800D35C03F01F03D8408B6903F00F03D35C51
:1013180003F01F0320FA03F30B4A13600B4B18600A
:101328000B4B1868FEF7F2FF70BD012070470120D3
:10133800FAE70120F8E70120F6E700BF0020005295
:1013480000440258981800080C00002008000020EB
:1013580004000020374BD3F8882042F47002C3F809
:1013680088201A6942F010021A61334B1B6803F097
:101378000F03062B06D8304A136823F00F0343F0F7
:10138800070313602D4B1A6842F001021A6000220D
:101398001A6119682A4A0A401A60274B1B6813F019
:1013A800080F06D0244A136823F00F0343F00703FD
:1013B8001360224B00229A61DA611A62214999620C
:1013C8002149D962214919635A639963DA63196417
:1013D8005A64196821F4802119601A664FF0B042E6
:1013E800D2F8E43043F48043C2F8E430184B1A686A
:1013F800184B1340B3F1005F03D2174B0122C3F817
:1014080008210E4BD3F8D43013F4805F10D10B4B66
:10141800D3F8D42042F48052C3F8D4200F4A43F2C0
:10142800D2011160D3F8D42022F48052C3F8D4201A
:10143800704700BF00ED00E0002000520044025851
:101448007FEDF6EA000202020000FF0180020101BE
:101458000010005C0000FFFF0080005100400052B7
:10146800064AD36823F0060343F00203D360034B14
:101478005B6813F4005FFAD0704700BF0048025859
:1014880010B5044600F052F904F1180000F04EF9C6
:1014980004F1300000F04AF904F1480000F046F980
:1014A80004F1600000F042F9204600F036F92046C9
:1014B80010BD10B584B000240094019402940394E4
:1014C800FEF7EEFF01238DF800308DF801400194FE
:1014D8001F228DF8082087228DF809208DF80A40F0
:1014E8008DF80B408DF80C308DF80D308DF80E40CE
:1014F8008DF80F406846FEF7F1FF0420FEF7DEFF87
:1015080004B010BD00B589B000230393049305937C
:1015180006930793124BD3F8E02042F00102C3F878
:10152800E020D3F8E02002F001020192019AD3F8FA
:10153800E02042F00202C3F8E020D3F8E03003F0E4
:1015480002030293029BC0230393122304930423F0
:10155800079303A90348FEF7EDFF09B05DF804FB04
:101568000044025800040258012800D0704738B5DA
:101578004FF6FF73994200D038BD0F4C2046FFF755
:101588007FFF21460D4800F0C4F80D4D224629463C
:101598000C4800F0E5F8224629460B4800F0CEF842
:1015A80022462946094800F0FFF8224629460848FD
:1015B80000F0E8F8E0E700BF600000203C010020F0
:1015C800E80000204000002030000020D800002063
:1015D8005000002072B6FEE700B59DB04C220021F5
:1015E80009A800F01CF92022002101A800F017F931
:1015F8000420FFF7C7F8002300931E4BDA6A22F095
:101608000102DA62DB6A03F0010300931A4A936964
:1016180023F4404343F480439361936903F44043C4
:101628000093009B144B9B6913F4005FFAD00223CC
:10163800099301230C9340230D930023129309A8C7
:10164800FFF7EAF888B93F23019300230293039335
:1016580004930593069307930893012101A8FFF7C4
:101668002FFD20B91DB05DF804FBFFF7B3FFFFF7AE
:10167800B1FF00BF000400580048025800B583B00D
:10168800FFF717FF4FF6FF7300E013461C4A126876
:1016980012F4004F03D05A1E002BF6DC1346002B21
:1016A8001ADBFEF75BFEFFF797FF154BD3F8E02038
:1016B80042F00072C3F8E020D3F8E03003F0007382
:1016C8000193019B0020FFF745F800210846FFF72A
:1016D80051F84FF6FF7302E0FFF77CFF1346084A04
:1016E800126812F4004F03D15A1E002BF6DC134681
:1016F800002B02DBFFF706FFFEE7FFF76BFF00BFDB
:101708000044025808B54FF6FF710120FFF72CFF7F
:1017180008BD002202704160704700220023C0E922
:101728000023C0E90223C0E90423704710B504462A
:10173800FFF7F3FF204610BD7047000010B4054CBA
:101748000460416019210172C260034A02605DF8B9
:10175800044B7047B0180008C01800087047000014
:1017680010B4054C0460416018210172C260034A3C
:1017780002605DF8044B7047B0180008D0180008E4
:101788007047000010B4054C046041606821017284
:10179800C260034A02605DF8044B7047B018000845
:1017A800E01800087047000010B4054C0460416060
:1017B80068210172C260034A02605DF8044B7047F9
:1017C800B0180008F0180008DFF838D0FFF748FE16
:1017D800FFF7C0FD0C480D490D4A002302E0D4581C
:1017E800C4500433C4188C42F9D30A4A0A4C002363
:1017F80001E013600432A242FBD300F019F8FFF7AE
:101808003DFF70470000022000000020100000206B
:10181800041900081000002044010020FEE70244DB
:101828000346934200D1704703F8011BF9E7000013
:1018380070B50D4D0D4C641BA4100026A64209D1AD
:101848000B4D0C4C00F018F8641BA4100026A6429F
:1018580005D170BD55F8043B98470136EEE755F8B9
:10186800043B98470136F2E7F8180008F818000812
:10187800F818000800190008F8B500BFF8BC08BC43
:101888009E467047F8B500BFF8BC08BC9E46704736
:10189800000000000102030401020304060708090E
:1018A8000000000000000000000000000000000030
:1018B800000000000000000043170008411700085E
:1018C8000000000000000000671700086517000806
:1018D80000000000000000008B17000889170008AE
:1018E8000000000000000000AF170008AD17000856
:0818F800BD0200080D170008F5
:041900009902000840
:1019040001000000100000000090D0030090D003FC
:04000005080017D107
:00000001FF
