:020000040810E2
:10000000008004105D0810086D0310086F031008CD
:100010007103100873031008750310080000000036
:10002000000000000000000000000000770310083E
:1000300079031008000000007B0310087D031008FE
:10004000B1081008B1081008B1081008B10810086C
:10005000B1081008B1081008B1081008B10810085C
:10006000B1081008B1081008B1081008B10810084C
:10007000B1081008B1081008B1081008B10810083C
:10008000B1081008B1081008B1081008B10810082C
:10009000B1081008B1081008B1081008B10810081C
:1000A000B1081008B1081008B1081008B10810080C
:1000B000B1081008B1081008B1081008B1081008FC
:1000C000B1081008B1081008B1081008B1081008EC
:1000D000B1081008B1081008B1081008B1081008DC
:1000E000B1081008B108100800000000B10810089D
:1000F000B1081008B1081008B1081008B1081008BC
:10010000B1081008B1081008B1081008B1081008AB
:10011000B1081008B1081008B1081008B10810089B
:10012000B1081008B1081008B1081008B10810088B
:10013000B1081008B1081008B1081008B10810087B
:10014000B1081008B108100800000000000000000D
:10015000B1081008B1081008B1081008B10810085B
:10016000B1081008B1081008B1081008B10810084B
:10017000B1081008B1081008B1081008000000000C
:10018000B1081008B1081008B1081008B10810082B
:10019000B1081008B1081008B1081008B10810081B
:1001A000B1081008B1081008B1081008B10810080B
:1001B000B1081008B1081008B1081008B1081008FB
:1001C000B1081008B1081008B1081008B1081008EB
:1001D000B1081008B1081008B1081008B1081008DB
:1001E000B1081008B1081008B1081008B1081008CB
:1001F000B1081008B1081008B1081008B1081008BB
:10020000B1081008B1081008B1081008B1081008AA
:10021000B1081008B1081008B1081008B10810089A
:10022000B1081008B1081008B1081008000000005B
:10023000B1081008B1081008B1081008B10810087A
:10024000B1081008B1081008B1081008B10810086A
:10025000B1081008B1081008B1081008B10810085A
:10026000B1081008B1081008B1081008B10810084A
:10027000B1081008B1081008B1081008B10810083A
:10028000B1081008B1081008B108100800000000FB
:08029000B1081008B1081008C4
:1002980010B5054C237833B9044B13B10448AFF3B8
:1002A80000800123237010BD100000100000000022
:1002B800FC08100808B5034B1BB103490348AFF30A
:1002C800008008BD0000000014000010FC081008A1
:1002D80000B583B0174BD3F8E02042F00072C3F8A2
:1002E800E020D3F8E03003F000730193019B012074
:1002F80000F02EF900F08CF901220221002000F014
:100308002FF90D4B1B68C3F30313072B09D00B4AB6
:10031800D2F8143143F00103C2F8143100F056F852
:10032800FEE7064AD2F8043143F00103C2F804316B
:10033800F4E700BF0044025800ED00E000640258F2
:1003480082B0074BD3F8F42042F00202C3F8F4203D
:10035800D3F8F43003F002030193019B02B0704715
:1003680000440258FEE7FEE7FEE7FEE7FEE77047B7
:100378007047704708B500F077F808BD104B1B7838
:100388000BB90120704710B504464FF47A70B0FBE2
:10039800F3F30C4A1068B0FBF3F000F0B9F868B951
:1003A8000F2C01D901200AE0002221464FF0FF302E
:1003B80000F078F8044B1C60002000E0012010BD1C
:1003C80000000010080000100400001010B582B0F2
:1003D8001F4CD4F8D83043F48043C4F8D830D4F84C
:1003E800D83003F480430193019B1A4AD2F80014D1
:1003F800194B0B4043F40143C2F80034D2F80034DF
:1004080043F00103C2F80034032000F039F800F08B
:1004180009F9A369C3F30323104AD35C03F01F034C
:10042800D840A36903F00F03D35C03F01F03D8403F
:100438000B4B18600B4B18600F20FFF79FFF18B18C
:100448000124204602B010BD0446FFF779FFF8E703
:100458000044025800400240FF00F0FF1409100851
:100468000C00001008000010034B1B78034A1168A9
:100478000B441360704700BF000000102C000010F0
:100488000649CB6823F4E0631B041B0C000200F44C
:10049800E0600343024A1A43CA60704700ED00E077
:1004A8000000FA0500B5174BDB68C3F30223C3F15C
:1004B800070CBCF1040F28BF4FF0040C03F1040E25
:1004C800BEF1060F14D9033B4FF0FF3E0EFA0CFCA9
:1004D80021EA0C0199400EFA03FE22EA0E020A43B1
:1004E800002807DB1201D2B2074B1A545DF804FB4F
:1004F8000023E9E700F00F001201D2B2034B1A54AF
:10050800F4E700BF00ED00E000E400E014ED00E0D7
:100518000138B0F1807F0BD24FF0E0235861054AD3
:10052800F02182F823100020986107221A61704791
:100538000120704700ED00E0044B1B68C3F3031370
:10054800072B01D0012070470320704700ED00E021
:10055800024A136903431361704700BF00650258DC
:1005680038B50D46284C236823F001030343236064
:100578005AB1012A25D0FFF7DFFF03283ED0224ACF
:10058800536923F00403536138BDFFF7D5FF0328EF
:10059800FAD1236923F0010323611C4A136943F04C
:1005A80004031361BFF34F8FBFF36F8F012D06D084
:1005B80020BF164A136923F004031361E4E730BF30
:1005C800F7E7FFF7B9FF0128DED10F4A536923F097
:1005D800020353610D4A136943F004031361BFF327
:1005E8004F8FBFF36F8F012D06D020BF074A1369C5
:1005F80023F004031361C7E730BFF7E7024A136922
:1006080023F004031361BFE70048025800ED00E03F
:1006180008B5FFF791FF032802D040BF20BF08BDEF
:1006280020BFFCE7744B1B6903F03803102B00F064
:10063800DE80182B0FD00BB1704870476E4B1B68CB
:1006480013F0200F00F0D5806B4B1B68C3F3C10378
:100658006B48D840704710B4674B9A6A02F003029F
:100668009C6AC4F30510D96A01F001015B6BC3F3FE
:10067800CC0301FB03F307EE903AF8EE677A14F423
:100688007C7F00F09480012A66D0022A00F09280D4
:10069800E2B107EE100AF8EE476A9FED5A6A86EE55
:1006A800267A554B1B6BC3F3080306EE903AF8EE17
:1006B800666A9FED556A67EE867A76EEA77AF7EE58
:1006C800006A77EEA67A27EE277A61E04A4B1B6824
:1006D80013F0200F23D048490A68C2F3C102484BDF
:1006E800D34007EE103AF8EE476A07EE100AB8EE64
:1006F800476A86EE867A0B6BC3F3080306EE903AD8
:10070800F8EE666A9FED406A67EE867A76EEA77A1B
:10071800F7EE006A77EEA67A27EE277A38E007EE3A
:10072800100AF8EE476A9FED396A86EE267A324B50
:100738001B6BC3F3080306EE903AF8EE666A9FED6A
:10074800326A67EE867A76EEA77AF7EE006A77EE77
:10075800A67A27EE277A1BE007EE100AF8EE476A1A
:100768009FED286A86EE267A234B1B6BC3F308039A
:1007780006EE903AF8EE666A9FED236A67EE867A8F
:1007880076EEA77AF7EE006A77EEA67A27EE277A52
:10079800194B1B6BC3F34623013307EE903AF8EE6F
:1007A800677AC7EE276AFCEEE67A17EE900A5DF8DC
:1007B800044B704707EE100AF8EE476A9FED146A7B
:1007C80086EE267A0C4B1B6BC3F3080306EE903AB1
:1007D800F8EE666A9FED0C6A67EE867A76EEA77A7F
:1007E800F7EE006A77EEA67A27EE277AD0E709486F
:1007F80070470348704700BF0044025800093D0095
:100808000090D0030024744A000000390024744C7E
:1008180020BCBE4B40787D01054BD3F8882042F4BC
:100828007002C3F888201A6942F010021A617047F2
:1008380000ED00E0064AD36823F0060343F0020304
:10084800D360034B5B6813F4005FFAD0704700BFB6
:1008580000480258DFF838D0FFF7ECFFFFF7DCFF5D
:100868000C480D490D4A002302E0D458C450043303
:10087800C4188C42F9D30A4A0A4C002301E01360D9
:100888000432A242FBD300F011F8FFF721FD7047B4
:100898000080041000000010100000102C0910083F
:1008A8001000001030000010FEE7000070B50D4D7C
:1008B8000D4C641BA4100026A64209D10B4D0C4C0C
:1008C80000F018F8641BA4100026A64205D170BDDC
:1008D80055F8043B98470136EEE755F8043B98472E
:1008E8000136F2E724091008240910082409100821
:1008F80028091008F8B500BFF8BC08BC9E46704728
:0C090800F8B500BFF8BC08BC9E46704764
:1009140000000000010203040102030406070809A1
:04092400BD021008F8
:040928009902100818
:10092C0001000000100000000090D0030090D003E4
:040000050810085D7A
:00000001FF
